{
  "contractName": "NFTlottery",
  "abi": [
    {
      "constant": false,
      "inputs": [],
      "name": "renounceOwnership",
      "outputs": [],
      "payable": false,
      "stateMutability": "nonpayable",
      "type": "function"
    },
    {
      "constant": true,
      "inputs": [],
      "name": "owner",
      "outputs": [
        {
          "name": "",
          "type": "address"
        }
      ],
      "payable": false,
      "stateMutability": "view",
      "type": "function"
    },
    {
      "constant": true,
      "inputs": [],
      "name": "isOwner",
      "outputs": [
        {
          "name": "",
          "type": "bool"
        }
      ],
      "payable": false,
      "stateMutability": "view",
      "type": "function"
    },
    {
      "constant": false,
      "inputs": [
        {
          "name": "newOwner",
          "type": "address"
        }
      ],
      "name": "transferOwnership",
      "outputs": [],
      "payable": false,
      "stateMutability": "nonpayable",
      "type": "function"
    },
    {
      "inputs": [
        {
          "name": "NFT",
          "type": "address"
        }
      ],
      "payable": false,
      "stateMutability": "nonpayable",
      "type": "constructor"
    },
    {
      "anonymous": false,
      "inputs": [
        {
          "indexed": true,
          "name": "previousOwner",
          "type": "address"
        },
        {
          "indexed": true,
          "name": "newOwner",
          "type": "address"
        }
      ],
      "name": "OwnershipTransferred",
      "type": "event"
    },
    {
      "constant": false,
      "inputs": [
        {
          "name": "_start",
          "type": "uint256"
        },
        {
          "name": "_end",
          "type": "uint256"
        },
        {
          "name": "_participants",
          "type": "address[]"
        },
        {
          "name": "_tokens",
          "type": "uint256[]"
        }
      ],
      "name": "createLottery",
      "outputs": [],
      "payable": false,
      "stateMutability": "nonpayable",
      "type": "function"
    },
    {
      "constant": false,
      "inputs": [
        {
          "name": "_lottery",
          "type": "uint256"
        },
        {
          "name": "_toadd",
          "type": "address[]"
        }
      ],
      "name": "addParticipant",
      "outputs": [],
      "payable": false,
      "stateMutability": "nonpayable",
      "type": "function"
    },
    {
      "constant": false,
      "inputs": [
        {
          "name": "_lottery",
          "type": "uint256"
        }
      ],
      "name": "setWinner",
      "outputs": [],
      "payable": false,
      "stateMutability": "nonpayable",
      "type": "function"
    }
  ],
  "bytecode": "0x608060405234801561001057600080fd5b506040516020806111a98339810180604052602081101561003057600080fd5b8101908080519060200190929190505050600061005161013660201b60201c565b9050806000806101000a81548173ffffffffffffffffffffffffffffffffffffffff021916908373ffffffffffffffffffffffffffffffffffffffff1602179055508073ffffffffffffffffffffffffffffffffffffffff16600073ffffffffffffffffffffffffffffffffffffffff167f8be0079c531659141344cd1fd0a4f28419497f9722a3daafe3b4186f6b6457e060405160405180910390a35080600260006101000a81548173ffffffffffffffffffffffffffffffffffffffff021916908373ffffffffffffffffffffffffffffffffffffffff1602179055505061013e565b600033905090565b61105c8061014d6000396000f3fe608060405234801561001057600080fd5b506004361061007d5760003560e01c80638da5cb5b1161005b5780638da5cb5b1461017c5780638f32d59b146101c6578063ce683dd6146101e8578063f2fde38b146103485761007d565b8063043c7e2c146100825780630df7160214610144578063715018a614610172575b600080fd5b6101426004803603604081101561009857600080fd5b8101908080359060200190929190803590602001906401000000008111156100bf57600080fd5b8201836020820111156100d157600080fd5b803590602001918460208302840111640100000000831117156100f357600080fd5b919080806020026020016040519081016040528093929190818152602001838360200280828437600081840152601f19601f82011690508083019250505050505050919291929050505061038c565b005b6101706004803603602081101561015a57600080fd5b810190808035906020019092919050505061054a565b005b61017a610715565b005b610184610850565b604051808273ffffffffffffffffffffffffffffffffffffffff1673ffffffffffffffffffffffffffffffffffffffff16815260200191505060405180910390f35b6101ce610879565b604051808215151515815260200191505060405180910390f35b610346600480360360808110156101fe57600080fd5b8101908080359060200190929190803590602001909291908035906020019064010000000081111561022f57600080fd5b82018360208201111561024157600080fd5b8035906020019184602083028401116401000000008311171561026357600080fd5b919080806020026020016040519081016040528093929190818152602001838360200280828437600081840152601f19601f820116905080830192505050505050509192919290803590602001906401000000008111156102c357600080fd5b8201836020820111156102d557600080fd5b803590602001918460208302840111640100000000831117156102f757600080fd5b919080806020026020016040519081016040528093929190818152602001838360200280828437600081840152601f19601f8201169050808301925050505050505091929192905050506108d7565b005b61038a6004803603602081101561035e57600080fd5b81019080803573ffffffffffffffffffffffffffffffffffffffff169060200190929190505050610a03565b005b610394610879565b1515610408576040517f08c379a00000000000000000000000000000000000000000000000000000000081526004018080602001828103825260208152602001807f4f776e61626c653a2063616c6c6572206973206e6f7420746865206f776e657281525060200191505060405180910390fd5b60006003600084815260200190815260200160002090504281600101541080156104355750428160020154105b15156104a9576040517f08c379a000000000000000000000000000000000000000000000000000000000815260040180806020018281038252600c8152602001807f696e76616c69642074696d65000000000000000000000000000000000000000081525060200191505060405180910390fd5b60008090505b8251811015610544578160000183828151811015156104ca57fe5b9060200190602002015190806001815401808255809150509060018203906000526020600020016000909192909190916101000a81548173ffffffffffffffffffffffffffffffffffffffff021916908373ffffffffffffffffffffffffffffffffffffffff1602179055505080806001019150506104af565b50505050565b610552610879565b15156105c6576040517f08c379a00000000000000000000000000000000000000000000000000000000081526004018080602001828103825260208152602001807f4f776e61626c653a2063616c6c6572206973206e6f7420746865206f776e657281525060200191505060405180910390fd5b6000600360008381526020019081526020016000209050600081600001805490501180156105fb575060008160040180549050115b151561060657600080fd5b8060040180549050816003015410151561061f57600080fd5b60006106318260000180549050610a8b565b905061063d8184610ad1565b6106a182600401836003015481548110151561065557fe5b9060005260206000200154836000018381548110151561067157fe5b9060005260206000200160009054906101000a900473ffffffffffffffffffffffffffffffffffffffff16610c58565b8160030160008154809291906001019190505550600082600001828154811015156106c857fe5b9060005260206000200160006101000a81548173ffffffffffffffffffffffffffffffffffffffff021916908373ffffffffffffffffffffffffffffffffffffffff160217905550505050565b61071d610879565b1515610791576040517f08c379a00000000000000000000000000000000000000000000000000000000081526004018080602001828103825260208152602001807f4f776e61626c653a2063616c6c6572206973206e6f7420746865206f776e657281525060200191505060405180910390fd5b600073ffffffffffffffffffffffffffffffffffffffff166000809054906101000a900473ffffffffffffffffffffffffffffffffffffffff1673ffffffffffffffffffffffffffffffffffffffff167f8be0079c531659141344cd1fd0a4f28419497f9722a3daafe3b4186f6b6457e060405160405180910390a360008060006101000a81548173ffffffffffffffffffffffffffffffffffffffff021916908373ffffffffffffffffffffffffffffffffffffffff160217905550565b60008060009054906101000a900473ffffffffffffffffffffffffffffffffffffffff16905090565b60008060009054906101000a900473ffffffffffffffffffffffffffffffffffffffff1673ffffffffffffffffffffffffffffffffffffffff166108bb610d51565b73ffffffffffffffffffffffffffffffffffffffff1614905090565b6108df610879565b1515610953576040517f08c379a00000000000000000000000000000000000000000000000000000000081526004018080602001828103825260208152602001807f4f776e61626c653a2063616c6c6572206973206e6f7420746865206f776e657281525060200191505060405180910390fd5b6040518060a00160405280838152602001858152602001848152602001600081526020018281525060036000600154815260200190815260200160002060008201518160000190805190602001906109ac929190610e9f565b5060208201518160010155604082015181600201556060820151816003015560808201518160040190805190602001906109e7929190610f29565b5090505060016000815480929190600101919050555050505050565b610a0b610879565b1515610a7f576040517f08c379a00000000000000000000000000000000000000000000000000000000081526004018080602001828103825260208152602001807f4f776e61626c653a2063616c6c6572206973206e6f7420746865206f776e657281525060200191505060405180910390fd5b610a8881610d59565b50565b600081444260405160200180838152602001828152602001925050506040516020818303038152906040528051906020012060001c811515610ac957fe5b069050919050565b6000600360008381526020019081526020016000206000019050808054905083101515610b66576040517f08c379a000000000000000000000000000000000000000000000000000000000815260040180806020018281038252600d8152602001807f696e76616c696420696e6465780000000000000000000000000000000000000081525060200191505060405180910390fd5b806001828054905003815481101515610b7b57fe5b9060005260206000200160009054906101000a900473ffffffffffffffffffffffffffffffffffffffff168184815481101515610bb457fe5b9060005260206000200160006101000a81548173ffffffffffffffffffffffffffffffffffffffff021916908373ffffffffffffffffffffffffffffffffffffffff160217905550806001828054905003815481101515610c1157fe5b9060005260206000200160006101000a81549073ffffffffffffffffffffffffffffffffffffffff021916905580805480919060019003610c529190610f76565b50505050565b600260009054906101000a900473ffffffffffffffffffffffffffffffffffffffff1673ffffffffffffffffffffffffffffffffffffffff166323b872dd3083856040518463ffffffff1660e01b8152600401808473ffffffffffffffffffffffffffffffffffffffff1673ffffffffffffffffffffffffffffffffffffffff1681526020018373ffffffffffffffffffffffffffffffffffffffff1673ffffffffffffffffffffffffffffffffffffffff1681526020018281526020019350505050600060405180830381600087803b158015610d3557600080fd5b505af1158015610d49573d6000803e3d6000fd5b505050505050565b600033905090565b600073ffffffffffffffffffffffffffffffffffffffff168173ffffffffffffffffffffffffffffffffffffffff1614151515610de1576040517f08c379a000000000000000000000000000000000000000000000000000000000815260040180806020018281038252602681526020018061100b6026913960400191505060405180910390fd5b8073ffffffffffffffffffffffffffffffffffffffff166000809054906101000a900473ffffffffffffffffffffffffffffffffffffffff1673ffffffffffffffffffffffffffffffffffffffff167f8be0079c531659141344cd1fd0a4f28419497f9722a3daafe3b4186f6b6457e060405160405180910390a3806000806101000a81548173ffffffffffffffffffffffffffffffffffffffff021916908373ffffffffffffffffffffffffffffffffffffffff16021790555050565b828054828255906000526020600020908101928215610f18579160200282015b82811115610f175782518260006101000a81548173ffffffffffffffffffffffffffffffffffffffff021916908373ffffffffffffffffffffffffffffffffffffffff16021790555091602001919060010190610ebf565b5b509050610f259190610fa2565b5090565b828054828255906000526020600020908101928215610f65579160200282015b82811115610f64578251825591602001919060010190610f49565b5b509050610f729190610fe5565b5090565b815481835581811115610f9d57818360005260206000209182019101610f9c9190610fe5565b5b505050565b610fe291905b80821115610fde57600081816101000a81549073ffffffffffffffffffffffffffffffffffffffff021916905550600101610fa8565b5090565b90565b61100791905b80821115611003576000816000905550600101610feb565b5090565b9056fe4f776e61626c653a206e6577206f776e657220697320746865207a65726f2061646472657373a165627a7a723058201aa66ff84828b02e289637c48eca5d48f2df6432328ad1db643e23841c8d530a0029",
  "source": "pragma solidity ^0.5.0;\r\n\r\nimport \"@openzeppelin/contracts/ownership/Ownable.sol\";\r\nimport \"@openzeppelin/contracts/token/ERC721/ERC721.sol\";\r\n\r\ncontract NFTlottery is Ownable{\r\n\r\n    struct lottery{\r\n        address[] participants;\r\n        uint start;\r\n        uint end;\r\n        uint winners;\r\n        uint[] tokens;\r\n        \r\n    }\r\n\r\n    uint totalLotteries;\r\n    ERC721 Digitible;\r\n    mapping(uint=>lottery) Lotteries;\r\n\r\n\r\n\r\n    constructor(address NFT) public {\r\n        Digitible=ERC721(NFT);\r\n    }\r\n\r\n    function createLottery(uint _start,uint _end,address[] memory _participants,uint[] memory _tokens) public onlyOwner {\r\n        Lotteries[totalLotteries]=lottery(_participants,_start,_end,0,_tokens);\r\n        totalLotteries++;\r\n    }\r\n\r\n    function addParticipant(uint _lottery,address[] memory _toadd) public onlyOwner{\r\n        \r\n        lottery storage L=Lotteries[_lottery];\r\n        require((L.start)<now&&(L.end<now),\"invalid time\");\r\n        for(uint i=0;i<_toadd.length;i++){\r\n            L.participants.push(_toadd[i]);\r\n        }\r\n        \r\n    }\r\n    function setWinner(uint _lottery) public onlyOwner{\r\n         \r\n         lottery storage L=Lotteries[_lottery];\r\n         require((L.participants.length>0)&&(L.tokens.length>0));\r\n         require(L.winners<L.tokens.length);\r\n         uint index=random(L.participants.length);\r\n\r\n         \r\n         \r\n         _burnParticipant(index, _lottery);\r\n         transferNFT(L.tokens[L.winners],L.participants[index]);\r\n         L.winners++;\r\n         L.participants[index]=address(0);\r\n    }\r\n\r\n    function transferNFT(uint id,address a) internal{\r\n        Digitible.transferFrom(address(this),a,id);\r\n    }\r\n    function random(uint modulus) internal returns(uint){\r\n        return uint(keccak256(abi.encodePacked(block.difficulty, now))) % modulus;\r\n    }\r\n\r\n    function _burnParticipant(uint index,uint _lottery) internal {\r\n        address[] storage array = Lotteries[_lottery].participants;\r\n        require(index < array.length,\"invalid index\");\r\n        array[index] = array[array.length-1];\r\n        delete array[array.length-1];\r\n        array.length--;\r\n    }\r\n}",
  "sourcePath": "/mnt/c/Users/JJJ/Code/Digitibles/NFTlottery/contracts/NFTlottery.sol",
  "compiler": {
    "name": "solc",
    "version": "0.5.5+commit.47a71e8f.Emscripten.clang"
  },
  "schemaVersion": "3.0.8",
  "updatedAt": "2020-02-18T05:20:31.491Z",
  "devdoc": {
    "methods": {
      "isOwner()": {
        "details": "Returns true if the caller is the current owner."
      },
      "owner()": {
        "details": "Returns the address of the current owner."
      },
      "renounceOwnership()": {
        "details": "Leaves the contract without owner. It will not be possible to call `onlyOwner` functions anymore. Can only be called by the current owner.     * NOTE: Renouncing ownership will leave the contract without an owner, thereby removing any functionality that is only available to the owner."
      },
      "transferOwnership(address)": {
        "details": "Transfers ownership of the contract to a new account (`newOwner`). Can only be called by the current owner."
      }
    }
  },
  "userdoc": {
    "methods": {}
  }
}